{
  "contractName": "ExamSystem",
  "abi": [
    {
      "inputs": [
        {
          "internalType": "uint256",
          "name": "",
          "type": "uint256"
        }
      ],
      "name": "exams",
      "outputs": [
        {
          "internalType": "uint256",
          "name": "id",
          "type": "uint256"
        },
        {
          "internalType": "string",
          "name": "name",
          "type": "string"
        },
        {
          "internalType": "string",
          "name": "date",
          "type": "string"
        },
        {
          "internalType": "uint256",
          "name": "duration",
          "type": "uint256"
        },
        {
          "internalType": "uint256",
          "name": "questions",
          "type": "uint256"
        },
        {
          "internalType": "address",
          "name": "creator",
          "type": "address"
        }
      ],
      "stateMutability": "view",
      "type": "function",
      "constant": true
    },
    {
      "inputs": [],
      "name": "nextExamId",
      "outputs": [
        {
          "internalType": "uint256",
          "name": "",
          "type": "uint256"
        }
      ],
      "stateMutability": "view",
      "type": "function",
      "constant": true
    },
    {
      "inputs": [
        {
          "internalType": "uint256",
          "name": "",
          "type": "uint256"
        }
      ],
      "name": "results",
      "outputs": [
        {
          "internalType": "uint256",
          "name": "examId",
          "type": "uint256"
        },
        {
          "internalType": "address",
          "name": "student",
          "type": "address"
        },
        {
          "internalType": "uint256",
          "name": "score",
          "type": "uint256"
        }
      ],
      "stateMutability": "view",
      "type": "function",
      "constant": true
    },
    {
      "inputs": [
        {
          "internalType": "address",
          "name": "",
          "type": "address"
        }
      ],
      "name": "users",
      "outputs": [
        {
          "internalType": "string",
          "name": "username",
          "type": "string"
        },
        {
          "internalType": "string",
          "name": "email",
          "type": "string"
        },
        {
          "internalType": "string",
          "name": "password",
          "type": "string"
        },
        {
          "internalType": "bool",
          "name": "isTeacher",
          "type": "bool"
        }
      ],
      "stateMutability": "view",
      "type": "function",
      "constant": true
    },
    {
      "inputs": [
        {
          "internalType": "string",
          "name": "_name",
          "type": "string"
        },
        {
          "internalType": "string",
          "name": "_date",
          "type": "string"
        },
        {
          "internalType": "uint256",
          "name": "_duration",
          "type": "uint256"
        },
        {
          "internalType": "uint256",
          "name": "_questions",
          "type": "uint256"
        }
      ],
      "name": "createExam",
      "outputs": [],
      "stateMutability": "nonpayable",
      "type": "function"
    },
    {
      "inputs": [
        {
          "internalType": "string",
          "name": "_username",
          "type": "string"
        },
        {
          "internalType": "string",
          "name": "_email",
          "type": "string"
        },
        {
          "internalType": "string",
          "name": "_password",
          "type": "string"
        },
        {
          "internalType": "bool",
          "name": "_isTeacher",
          "type": "bool"
        }
      ],
      "name": "registerUser",
      "outputs": [],
      "stateMutability": "nonpayable",
      "type": "function"
    },
    {
      "inputs": [
        {
          "internalType": "uint256",
          "name": "_examId",
          "type": "uint256"
        },
        {
          "internalType": "uint256",
          "name": "_score",
          "type": "uint256"
        }
      ],
      "name": "submitResult",
      "outputs": [],
      "stateMutability": "nonpayable",
      "type": "function"
    },
    {
      "inputs": [],
      "name": "getExams",
      "outputs": [
        {
          "components": [
            {
              "internalType": "uint256",
              "name": "id",
              "type": "uint256"
            },
            {
              "internalType": "string",
              "name": "name",
              "type": "string"
            },
            {
              "internalType": "string",
              "name": "date",
              "type": "string"
            },
            {
              "internalType": "uint256",
              "name": "duration",
              "type": "uint256"
            },
            {
              "internalType": "uint256",
              "name": "questions",
              "type": "uint256"
            },
            {
              "internalType": "address",
              "name": "creator",
              "type": "address"
            }
          ],
          "internalType": "struct ExamSystem.Exam[]",
          "name": "",
          "type": "tuple[]"
        }
      ],
      "stateMutability": "view",
      "type": "function",
      "constant": true
    },
    {
      "inputs": [
        {
          "internalType": "address",
          "name": "_user",
          "type": "address"
        }
      ],
      "name": "getUser",
      "outputs": [
        {
          "components": [
            {
              "internalType": "string",
              "name": "username",
              "type": "string"
            },
            {
              "internalType": "string",
              "name": "email",
              "type": "string"
            },
            {
              "internalType": "string",
              "name": "password",
              "type": "string"
            },
            {
              "internalType": "bool",
              "name": "isTeacher",
              "type": "bool"
            }
          ],
          "internalType": "struct ExamSystem.User",
          "name": "",
          "type": "tuple"
        }
      ],
      "stateMutability": "view",
      "type": "function",
      "constant": true
    },
    {
      "inputs": [],
      "name": "getResults",
      "outputs": [
        {
          "components": [
            {
              "internalType": "uint256",
              "name": "examId",
              "type": "uint256"
            },
            {
              "internalType": "address",
              "name": "student",
              "type": "address"
            },
            {
              "internalType": "uint256",
              "name": "score",
              "type": "uint256"
            }
          ],
          "internalType": "struct ExamSystem.Result[]",
          "name": "",
          "type": "tuple[]"
        }
      ],
      "stateMutability": "view",
      "type": "function",
      "constant": true
    }
  ],
  "bytecode": "0x608060405234801561001057600080fd5b50611960806100206000396000f3fe608060405234801561001057600080fd5b506004361061009e5760003560e01c80634717f97c116100665780634717f97c1461016257806355dfd350146101805780636f77926b1461019c5780639ef1d46f146101cc578063a87430ba146101e85761009e565b80631b0c27da146100a357806320d840d3146100d5578063236472ce146100f3578063324f6f21146101115780634198cb3f1461012d575b600080fd5b6100bd60048036038101906100b891906110ee565b61021b565b6040516100cc9392919061159c565b60405180910390f35b6100dd610275565b6040516100ea9190611581565b60405180910390f35b6100fb61027b565b60405161010891906114a1565b60405180910390f35b61012b60048036038101906101269190611117565b610472565b005b610147600480360381019061014291906110ee565b61052f565b604051610159969594939291906115d3565b60405180910390f35b61016a6106ab565b60405161017791906114c3565b60405180910390f35b61019a6004803603810190610195919061105b565b610774565b005b6101b660048036038101906101b19190610f87565b610932565b6040516101c3919061155f565b60405180910390f35b6101e660048036038101906101e19190610fb0565b610b5c565b005b61020260048036038101906101fd9190610f87565b610c3e565b60405161021294939291906114e5565b60405180910390f35b6002818154811061022b57600080fd5b90600052602060002090600302016000915090508060000154908060010160009054906101000a900473ffffffffffffffffffffffffffffffffffffffff16908060020154905083565b60035481565b60606000805480602002602001604051908101604052809291908181526020016000905b8282101561046957838290600052602060002090600602016040518060c0016040529081600082015481526020016001820180546102dc906117cc565b80601f0160208091040260200160405190810160405280929190818152602001828054610308906117cc565b80156103555780601f1061032a57610100808354040283529160200191610355565b820191906000526020600020905b81548152906001019060200180831161033857829003601f168201915b5050505050815260200160028201805461036e906117cc565b80601f016020809104026020016040519081016040528092919081815260200182805461039a906117cc565b80156103e75780601f106103bc576101008083540402835291602001916103e7565b820191906000526020600020905b8154815290600101906020018083116103ca57829003601f168201915b5050505050815260200160038201548152602001600482015481526020016005820160009054906101000a900473ffffffffffffffffffffffffffffffffffffffff1673ffffffffffffffffffffffffffffffffffffffff1673ffffffffffffffffffffffffffffffffffffffff16815250508152602001906001019061029f565b50505050905090565b600260405180606001604052808481526020013373ffffffffffffffffffffffffffffffffffffffff1681526020018381525090806001815401808255809150506001900390600052602060002090600302016000909190919091506000820151816000015560208201518160010160006101000a81548173ffffffffffffffffffffffffffffffffffffffff021916908373ffffffffffffffffffffffffffffffffffffffff1602179055506040820151816002015550505050565b6000818154811061053f57600080fd5b9060005260206000209060060201600091509050806000015490806001018054610568906117cc565b80601f0160208091040260200160405190810160405280929190818152602001828054610594906117cc565b80156105e15780601f106105b6576101008083540402835291602001916105e1565b820191906000526020600020905b8154815290600101906020018083116105c457829003601f168201915b5050505050908060020180546105f6906117cc565b80601f0160208091040260200160405190810160405280929190818152602001828054610622906117cc565b801561066f5780601f106106445761010080835404028352916020019161066f565b820191906000526020600020905b81548152906001019060200180831161065257829003601f168201915b5050505050908060030154908060040154908060050160009054906101000a900473ffffffffffffffffffffffffffffffffffffffff16905086565b60606002805480602002602001604051908101604052809291908181526020016000905b8282101561076b5783829060005260206000209060030201604051806060016040529081600082015481526020016001820160009054906101000a900473ffffffffffffffffffffffffffffffffffffffff1673ffffffffffffffffffffffffffffffffffffffff1673ffffffffffffffffffffffffffffffffffffffff168152602001600282015481525050815260200190600101906106cf565b50505050905090565b600160003373ffffffffffffffffffffffffffffffffffffffff1673ffffffffffffffffffffffffffffffffffffffff16815260200190815260200160002060030160009054906101000a900460ff16610803576040517f08c379a00000000000000000000000000000000000000000000000000000000081526004016107fa9061153f565b60405180910390fd5b60006040518060c0016040528060035481526020018681526020018581526020018481526020018381526020013373ffffffffffffffffffffffffffffffffffffffff168152509080600181540180825580915050600190039060005260206000209060060201600090919091909150600082015181600001556020820151816001019080519060200190610899929190610e13565b5060408201518160020190805190602001906108b6929190610e13565b50606082015181600301556080820151816004015560a08201518160050160006101000a81548173ffffffffffffffffffffffffffffffffffffffff021916908373ffffffffffffffffffffffffffffffffffffffff160217905550505060036000815480929190610927906117fe565b919050555050505050565b61093a610e99565b600160008373ffffffffffffffffffffffffffffffffffffffff1673ffffffffffffffffffffffffffffffffffffffff168152602001908152602001600020604051806080016040529081600082018054610994906117cc565b80601f01602080910402602001604051908101604052809291908181526020018280546109c0906117cc565b8015610a0d5780601f106109e257610100808354040283529160200191610a0d565b820191906000526020600020905b8154815290600101906020018083116109f057829003601f168201915b50505050508152602001600182018054610a26906117cc565b80601f0160208091040260200160405190810160405280929190818152602001828054610a52906117cc565b8015610a9f5780601f10610a7457610100808354040283529160200191610a9f565b820191906000526020600020905b815481529060010190602001808311610a8257829003601f168201915b50505050508152602001600282018054610ab8906117cc565b80601f0160208091040260200160405190810160405280929190818152602001828054610ae4906117cc565b8015610b315780601f10610b0657610100808354040283529160200191610b31565b820191906000526020600020905b815481529060010190602001808311610b1457829003601f168201915b505050505081526020016003820160009054906101000a900460ff1615151515815250509050919050565b6040518060800160405280858152602001848152602001838152602001821515815250600160003373ffffffffffffffffffffffffffffffffffffffff1673ffffffffffffffffffffffffffffffffffffffff1681526020019081526020016000206000820151816000019080519060200190610bda929190610e13565b506020820151816001019080519060200190610bf7929190610e13565b506040820151816002019080519060200190610c14929190610e13565b5060608201518160030160006101000a81548160ff02191690831515021790555090505050505050565b6001602052806000526040600020600091509050806000018054610c61906117cc565b80601f0160208091040260200160405190810160405280929190818152602001828054610c8d906117cc565b8015610cda5780601f10610caf57610100808354040283529160200191610cda565b820191906000526020600020905b815481529060010190602001808311610cbd57829003601f168201915b505050505090806001018054610cef906117cc565b80601f0160208091040260200160405190810160405280929190818152602001828054610d1b906117cc565b8015610d685780601f10610d3d57610100808354040283529160200191610d68565b820191906000526020600020905b815481529060010190602001808311610d4b57829003601f168201915b505050505090806002018054610d7d906117cc565b80601f0160208091040260200160405190810160405280929190818152602001828054610da9906117cc565b8015610df65780601f10610dcb57610100808354040283529160200191610df6565b820191906000526020600020905b815481529060010190602001808311610dd957829003601f168201915b5050505050908060030160009054906101000a900460ff16905084565b828054610e1f906117cc565b90600052602060002090601f016020900481019282610e415760008555610e88565b82601f10610e5a57805160ff1916838001178555610e88565b82800160010185558215610e88579182015b82811115610e87578251825591602001919060010190610e6c565b5b509050610e959190610ec3565b5090565b60405180608001604052806060815260200160608152602001606081526020016000151581525090565b5b80821115610edc576000816000905550600101610ec4565b5090565b6000610ef3610eee84611673565b611642565b905082815260208101848484011115610f0b57600080fd5b610f1684828561178a565b509392505050565b600081359050610f2d816118e5565b92915050565b600081359050610f42816118fc565b92915050565b600082601f830112610f5957600080fd5b8135610f69848260208601610ee0565b91505092915050565b600081359050610f8181611913565b92915050565b600060208284031215610f9957600080fd5b6000610fa784828501610f1e565b91505092915050565b60008060008060808587031215610fc657600080fd5b600085013567ffffffffffffffff811115610fe057600080fd5b610fec87828801610f48565b945050602085013567ffffffffffffffff81111561100957600080fd5b61101587828801610f48565b935050604085013567ffffffffffffffff81111561103257600080fd5b61103e87828801610f48565b925050606061104f87828801610f33565b91505092959194509250565b6000806000806080858703121561107157600080fd5b600085013567ffffffffffffffff81111561108b57600080fd5b61109787828801610f48565b945050602085013567ffffffffffffffff8111156110b457600080fd5b6110c087828801610f48565b93505060406110d187828801610f72565b92505060606110e287828801610f72565b91505092959194509250565b60006020828403121561110057600080fd5b600061110e84828501610f72565b91505092915050565b6000806040838503121561112a57600080fd5b600061113885828601610f72565b925050602061114985828601610f72565b9150509250929050565b600061115f8383611340565b905092915050565b600061117383836113d0565b60608301905092915050565b61118881611742565b82525050565b61119781611742565b82525050565b60006111a8826116c3565b6111b281856116fe565b9350836020820285016111c4856116a3565b8060005b8581101561120057848403895281516111e18582611153565b94506111ec836116e4565b925060208a019950506001810190506111c8565b50829750879550505050505092915050565b600061121d826116ce565b611227818561170f565b9350611232836116b3565b8060005b8381101561126357815161124a8882611167565b9750611255836116f1565b925050600181019050611236565b5085935050505092915050565b61127981611754565b82525050565b61128881611754565b82525050565b6000611299826116d9565b6112a38185611720565b93506112b3818560208601611799565b6112bc816118d4565b840191505092915050565b60006112d2826116d9565b6112dc8185611731565b93506112ec818560208601611799565b6112f5816118d4565b840191505092915050565b600061130d601e83611731565b91507f4f6e6c792074656163686572732063616e20637265617465206578616d7300006000830152602082019050919050565b600060c0830160008301516113586000860182611483565b5060208301518482036020860152611370828261128e565b9150506040830151848203604086015261138a828261128e565b915050606083015161139f6060860182611483565b5060808301516113b26080860182611483565b5060a08301516113c560a086018261117f565b508091505092915050565b6060820160008201516113e66000850182611483565b5060208201516113f9602085018261117f565b50604082015161140c6040850182611483565b50505050565b6000608083016000830151848203600086015261142f828261128e565b91505060208301518482036020860152611449828261128e565b91505060408301518482036040860152611463828261128e565b91505060608301516114786060860182611270565b508091505092915050565b61148c81611780565b82525050565b61149b81611780565b82525050565b600060208201905081810360008301526114bb818461119d565b905092915050565b600060208201905081810360008301526114dd8184611212565b905092915050565b600060808201905081810360008301526114ff81876112c7565b9050818103602083015261151381866112c7565b9050818103604083015261152781856112c7565b9050611536606083018461127f565b95945050505050565b6000602082019050818103600083015261155881611300565b9050919050565b600060208201905081810360008301526115798184611412565b905092915050565b60006020820190506115966000830184611492565b92915050565b60006060820190506115b16000830186611492565b6115be602083018561118e565b6115cb6040830184611492565b949350505050565b600060c0820190506115e86000830189611492565b81810360208301526115fa81886112c7565b9050818103604083015261160e81876112c7565b905061161d6060830186611492565b61162a6080830185611492565b61163760a083018461118e565b979650505050505050565b6000604051905081810181811067ffffffffffffffff82111715611669576116686118a5565b5b8060405250919050565b600067ffffffffffffffff82111561168e5761168d6118a5565b5b601f19601f8301169050602081019050919050565b6000819050602082019050919050565b6000819050602082019050919050565b600081519050919050565b600081519050919050565b600081519050919050565b6000602082019050919050565b6000602082019050919050565b600082825260208201905092915050565b600082825260208201905092915050565b600082825260208201905092915050565b600082825260208201905092915050565b600061174d82611760565b9050919050565b60008115159050919050565b600073ffffffffffffffffffffffffffffffffffffffff82169050919050565b6000819050919050565b82818337600083830152505050565b60005b838110156117b757808201518184015260208101905061179c565b838111156117c6576000848401525b50505050565b600060028204905060018216806117e457607f821691505b602082108114156117f8576117f7611876565b5b50919050565b600061180982611780565b91507fffffffffffffffffffffffffffffffffffffffffffffffffffffffffffffffff82141561183c5761183b611847565b5b600182019050919050565b7f4e487b7100000000000000000000000000000000000000000000000000000000600052601160045260246000fd5b7f4e487b7100000000000000000000000000000000000000000000000000000000600052602260045260246000fd5b7f4e487b7100000000000000000000000000000000000000000000000000000000600052604160045260246000fd5b6000601f19601f8301169050919050565b6118ee81611742565b81146118f957600080fd5b50565b61190581611754565b811461191057600080fd5b50565b61191c81611780565b811461192757600080fd5b5056fea2646970667358221220814a63ea8df24b1db1bd19342f51895e18eeeeeae8efe65d97f63ad96a1eaf6264736f6c63430008000033",
  "immutableReferences": {},
  "source": "pragma solidity ^0.8.0;\r\n\r\ncontract ExamSystem {\r\n    struct Exam {\r\n        uint256 id;\r\n        string name;\r\n        string date;\r\n        uint256 duration;\r\n        uint256 questions;\r\n        address creator;\r\n    }\r\n\r\n    struct User {\r\n        string username;\r\n        string email;\r\n        string password;\r\n        bool isTeacher;\r\n    }\r\n\r\n    struct Result {\r\n        uint256 examId;\r\n        address student;\r\n        uint256 score;\r\n    }\r\n\r\n    Exam[] public exams;\r\n    mapping(address => User) public users;\r\n    Result[] public results;\r\n    uint256 public nextExamId;\r\n\r\n    function createExam(string memory _name, string memory _date, uint256 _duration, uint256 _questions) public {\r\n        require(users[msg.sender].isTeacher, \"Only teachers can create exams\");\r\n        exams.push(Exam({\r\n            id: nextExamId,\r\n            name: _name,\r\n            date: _date,\r\n            duration: _duration,\r\n            questions: _questions,\r\n            creator: msg.sender\r\n        }));\r\n        nextExamId++;\r\n    }\r\n\r\n    function registerUser(string memory _username, string memory _email, string memory _password, bool _isTeacher) public {\r\n        users[msg.sender] = User({\r\n            username: _username,\r\n            email: _email,\r\n            password: _password,\r\n            isTeacher: _isTeacher\r\n        });\r\n    }\r\n\r\n    function submitResult(uint256 _examId, uint256 _score) public {\r\n        results.push(Result({\r\n            examId: _examId,\r\n            student: msg.sender,\r\n            score: _score\r\n        }));\r\n    }\r\n\r\n    function getExams() public view returns (Exam[] memory) {\r\n        return exams;\r\n    }\r\n\r\n    function getUser(address _user) public view returns (User memory) {\r\n        return users[_user];\r\n    }\r\n\r\n    function getResults() public view returns (Result[] memory) {\r\n        return results;\r\n    }\r\n}",
  "sourcePath": "D:\\BLOCKCHAIN\\TL\\chamdiem\\contracts\\ExamSystem.sol",
  "compiler": {
    "name": "solc",
    "version": "0.8.0+commit.c7dfd78e.Emscripten.clang"
  },
  "schemaVersion": "3.4.16",
  "updatedAt": "2025-03-11T07:11:03.975Z",
  "networkType": "ethereum",
  "devdoc": {
    "kind": "dev",
    "methods": {},
    "version": 1
  },
  "userdoc": {
    "kind": "user",
    "methods": {},
    "version": 1
  }
}